{
  "_format": "hh-sol-artifact-1",
  "contractName": "ProofOfPromptRegistry",
  "sourceName": "contracts/ProofOfPromptRegistry.sol",
  "abi": [
    {
      "anonymous": false,
      "inputs": [
        {
          "indexed": true,
          "internalType": "bytes32",
          "name": "fingerprint",
          "type": "bytes32"
        },
        {
          "indexed": true,
          "internalType": "address",
          "name": "owner",
          "type": "address"
        },
        {
          "indexed": false,
          "internalType": "uint256",
          "name": "timestamp",
          "type": "uint256"
        },
        {
          "indexed": false,
          "internalType": "string",
          "name": "metadataCID",
          "type": "string"
        }
      ],
      "name": "ProofRegistered",
      "type": "event"
    },
    {
      "inputs": [
        {
          "internalType": "bytes32",
          "name": "fingerprint",
          "type": "bytes32"
        }
      ],
      "name": "getProof",
      "outputs": [
        {
          "internalType": "address",
          "name": "owner",
          "type": "address"
        },
        {
          "internalType": "uint256",
          "name": "timestamp",
          "type": "uint256"
        },
        {
          "internalType": "string",
          "name": "metadataCID",
          "type": "string"
        }
      ],
      "stateMutability": "view",
      "type": "function"
    },
    {
      "inputs": [
        {
          "internalType": "bytes32",
          "name": "",
          "type": "bytes32"
        }
      ],
      "name": "proofs",
      "outputs": [
        {
          "internalType": "address",
          "name": "owner",
          "type": "address"
        },
        {
          "internalType": "uint256",
          "name": "timestamp",
          "type": "uint256"
        },
        {
          "internalType": "string",
          "name": "metadataCID",
          "type": "string"
        }
      ],
      "stateMutability": "view",
      "type": "function"
    },
    {
      "inputs": [
        {
          "internalType": "bytes32",
          "name": "fingerprint",
          "type": "bytes32"
        },
        {
          "internalType": "string",
          "name": "metadataCID",
          "type": "string"
        }
      ],
      "name": "registerProof",
      "outputs": [],
      "stateMutability": "nonpayable",
      "type": "function"
    }
  ],
  "bytecode": "0x608060405234801561001057600080fd5b50610ae5806100206000396000f3fe608060405234801561001057600080fd5b50600436106100415760003560e01c80631b80bb3a146100465780632a6fc70a14610078578063444d95b014610094575b600080fd5b610060600480360381019061005b91906104ae565b6100c6565b60405161006f939291906105c5565b60405180910390f35b610092600480360381019061008d9190610668565b6101fb565b005b6100ae60048036038101906100a991906104ae565b61039c565b6040516100bd939291906105c5565b60405180910390f35b600080606060008060008681526020019081526020016000206040518060600160405290816000820160009054906101000a900473ffffffffffffffffffffffffffffffffffffffff1673ffffffffffffffffffffffffffffffffffffffff1673ffffffffffffffffffffffffffffffffffffffff1681526020016001820154815260200160028201805461015a906106f7565b80601f0160208091040260200160405190810160405280929190818152602001828054610186906106f7565b80156101d35780601f106101a8576101008083540402835291602001916101d3565b820191906000526020600020905b8154815290600101906020018083116101b657829003601f168201915b5050505050815250509050806000015181602001518260400151935093509350509193909250565b60008060008581526020019081526020016000206001015414610253576040517f08c379a000000000000000000000000000000000000000000000000000000000815260040161024a90610774565b60405180910390fd5b60405180606001604052803373ffffffffffffffffffffffffffffffffffffffff16815260200142815260200183838080601f016020809104026020016040519081016040528093929190818152602001838380828437600081840152601f19601f8201169050808301925050505050505081525060008085815260200190815260200160002060008201518160000160006101000a81548173ffffffffffffffffffffffffffffffffffffffff021916908373ffffffffffffffffffffffffffffffffffffffff160217905550602082015181600101556040820151816002019081610340919061096f565b509050503373ffffffffffffffffffffffffffffffffffffffff16837f857bf7f0da8d8d88c34666667ac9e4d49c2c36643ad32be7a9ed914138c266ba42858560405161038f93929190610a7d565b60405180910390a3505050565b60006020528060005260406000206000915090508060000160009054906101000a900473ffffffffffffffffffffffffffffffffffffffff16908060010154908060020180546103eb906106f7565b80601f0160208091040260200160405190810160405280929190818152602001828054610417906106f7565b80156104645780601f1061043957610100808354040283529160200191610464565b820191906000526020600020905b81548152906001019060200180831161044757829003601f168201915b5050505050905083565b600080fd5b600080fd5b6000819050919050565b61048b81610478565b811461049657600080fd5b50565b6000813590506104a881610482565b92915050565b6000602082840312156104c4576104c361046e565b5b60006104d284828501610499565b91505092915050565b600073ffffffffffffffffffffffffffffffffffffffff82169050919050565b6000610506826104db565b9050919050565b610516816104fb565b82525050565b6000819050919050565b61052f8161051c565b82525050565b600081519050919050565b600082825260208201905092915050565b60005b8381101561056f578082015181840152602081019050610554565b60008484015250505050565b6000601f19601f8301169050919050565b600061059782610535565b6105a18185610540565b93506105b1818560208601610551565b6105ba8161057b565b840191505092915050565b60006060820190506105da600083018661050d565b6105e76020830185610526565b81810360408301526105f9818461058c565b9050949350505050565b600080fd5b600080fd5b600080fd5b60008083601f84011261062857610627610603565b5b8235905067ffffffffffffffff81111561064557610644610608565b5b6020830191508360018202830111156106615761066061060d565b5b9250929050565b6000806000604084860312156106815761068061046e565b5b600061068f86828701610499565b935050602084013567ffffffffffffffff8111156106b0576106af610473565b5b6106bc86828701610612565b92509250509250925092565b7f4e487b7100000000000000000000000000000000000000000000000000000000600052602260045260246000fd5b6000600282049050600182168061070f57607f821691505b602082108103610722576107216106c8565b5b50919050565b7f416c726561647920726567697374657265640000000000000000000000000000600082015250565b600061075e601283610540565b915061076982610728565b602082019050919050565b6000602082019050818103600083015261078d81610751565b9050919050565b7f4e487b7100000000000000000000000000000000000000000000000000000000600052604160045260246000fd5b60008190508160005260206000209050919050565b60006020601f8301049050919050565b600082821b905092915050565b6000600883026108257fffffffffffffffffffffffffffffffffffffffffffffffffffffffffffffffff826107e8565b61082f86836107e8565b95508019841693508086168417925050509392505050565b6000819050919050565b600061086c6108676108628461051c565b610847565b61051c565b9050919050565b6000819050919050565b61088683610851565b61089a61089282610873565b8484546107f5565b825550505050565b600090565b6108af6108a2565b6108ba81848461087d565b505050565b5b818110156108de576108d36000826108a7565b6001810190506108c0565b5050565b601f821115610923576108f4816107c3565b6108fd846107d8565b8101602085101561090c578190505b610920610918856107d8565b8301826108bf565b50505b505050565b600082821c905092915050565b600061094660001984600802610928565b1980831691505092915050565b600061095f8383610935565b9150826002028217905092915050565b61097882610535565b67ffffffffffffffff81111561099157610990610794565b5b61099b82546106f7565b6109a68282856108e2565b600060209050601f8311600181146109d957600084156109c7578287015190505b6109d18582610953565b865550610a39565b601f1984166109e7866107c3565b60005b82811015610a0f578489015182556001820191506020850194506020810190506109ea565b86831015610a2c5784890151610a28601f891682610935565b8355505b6001600288020188555050505b505050505050565b82818337600083830152505050565b6000610a5c8385610540565b9350610a69838584610a41565b610a728361057b565b840190509392505050565b6000604082019050610a926000830186610526565b8181036020830152610aa5818486610a50565b905094935050505056fea264697066735822122068d8df20d756a05c5b72b035f51ef84d5ccff2262b9a9f82ec924796d11dfbf964736f6c63430008140033",
  "linkReferences": {},
  "deployedLinkReferences": {}
}